{
  "_format": "hh-sol-artifact-1",
  "contractName": "Treasury",
  "sourceName": "contracts/Contract.sol",
  "abi": [
    {
      "inputs": [],
      "stateMutability": "nonpayable",
      "type": "constructor"
    },
    {
      "inputs": [
        {
          "internalType": "address",
          "name": "",
          "type": "address"
        }
      ],
      "name": "balances",
      "outputs": [
        {
          "internalType": "uint256",
          "name": "",
          "type": "uint256"
        }
      ],
      "stateMutability": "view",
      "type": "function"
    },
    {
      "inputs": [
        {
          "internalType": "address",
          "name": "",
          "type": "address"
        }
      ],
      "name": "delivered",
      "outputs": [
        {
          "internalType": "bool",
          "name": "",
          "type": "bool"
        }
      ],
      "stateMutability": "view",
      "type": "function"
    },
    {
      "inputs": [],
      "name": "owner",
      "outputs": [
        {
          "internalType": "address",
          "name": "",
          "type": "address"
        }
      ],
      "stateMutability": "view",
      "type": "function"
    },
    {
      "inputs": [],
      "name": "payment",
      "outputs": [],
      "stateMutability": "payable",
      "type": "function"
    },
    {
      "inputs": [
        {
          "internalType": "address",
          "name": "_address",
          "type": "address"
        }
      ],
      "name": "updateDelivered",
      "outputs": [],
      "stateMutability": "nonpayable",
      "type": "function"
    },
    {
      "inputs": [
        {
          "internalType": "uint256",
          "name": "amount",
          "type": "uint256"
        },
        {
          "internalType": "address payable",
          "name": "reciever",
          "type": "address"
        }
      ],
      "name": "withdraw",
      "outputs": [],
      "stateMutability": "nonpayable",
      "type": "function"
    }
  ],
  "bytecode": "0x608060405234801561001057600080fd5b50600080546001600160a01b031916331790556103b5806100326000396000f3fe6080604052600436106100545760003560e01c8062f714ce1461005957806327e235e31461009457806342f6487a146100d95780638da5cb5b146100e1578063a03e267814610112578063d659481614610145575b600080fd5b34801561006557600080fd5b506100926004803603604081101561007c57600080fd5b50803590602001356001600160a01b031661018c565b005b3480156100a057600080fd5b506100c7600480360360208110156100b757600080fd5b50356001600160a01b0316610272565b60408051918252519081900360200190f35b610092610284565b3480156100ed57600080fd5b506100f66102e0565b604080516001600160a01b039092168252519081900360200190f35b34801561011e57600080fd5b506100926004803603602081101561013557600080fd5b50356001600160a01b03166102ef565b34801561015157600080fd5b506101786004803603602081101561016857600080fd5b50356001600160a01b031661036a565b604080519115158252519081900360200190f35b6000546001600160a01b031633146101eb576040805162461bcd60e51b815260206004820152601760248201527f4f6e6c79206f776e65722063616e207769746864726177000000000000000000604482015290519081900360640190fd5b47821115610237576040805162461bcd60e51b8152602060048201526014602482015273496e73756666696369656e742062616c616e636560601b604482015290519081900360640190fd5b6040516001600160a01b0382169083156108fc029084906000818181858888f1935050505015801561026d573d6000803e3d6000fd5b505050565b60016020526000908152604090205481565b600034116102c9576040805162461bcd60e51b815260206004820152600d60248201526c139bc81d985b1d59481cd95b9d609a1b604482015290519081900360640190fd5b336000908152600160205260409020805434019055565b6000546001600160a01b031681565b6000546001600160a01b03163314610346576040805162461bcd60e51b81526020600482015260156024820152744f6e6c79206f776e65722063616e2075706461746560581b604482015290519081900360640190fd5b6001600160a01b03166000908152600260205260409020805460ff19166001179055565b60026020526000908152604090205460ff168156fea26469706673582212203c3c10118911c9a3b06d6b2e071beba6bdf5cfc27f3c939608eb81a258513d9264736f6c63430006000033",
  "linkReferences": {},
  "deployedLinkReferences": {}
}