{
  "_format": "hh-sol-artifact-1",
  "contractName": "Treasury",
  "sourceName": "contracts/Contract.sol",
  "abi": [
    {
      "inputs": [],
      "stateMutability": "nonpayable",
      "type": "constructor"
    },
    {
      "inputs": [
        {
          "internalType": "address",
          "name": "",
          "type": "address"
        }
      ],
      "name": "balances",
      "outputs": [
        {
          "internalType": "uint256",
          "name": "",
          "type": "uint256"
        }
      ],
      "stateMutability": "view",
      "type": "function"
    },
    {
      "inputs": [
        {
          "internalType": "address",
          "name": "",
          "type": "address"
        }
      ],
      "name": "delivered",
      "outputs": [
        {
          "internalType": "bool",
          "name": "",
          "type": "bool"
        }
      ],
      "stateMutability": "view",
      "type": "function"
    },
    {
      "inputs": [],
      "name": "owner",
      "outputs": [
        {
          "internalType": "address",
          "name": "",
          "type": "address"
        }
      ],
      "stateMutability": "view",
      "type": "function"
    },
    {
      "inputs": [],
      "name": "payment",
      "outputs": [],
      "stateMutability": "payable",
      "type": "function"
    },
    {
      "inputs": [
        {
          "internalType": "address",
          "name": "_address",
          "type": "address"
        }
      ],
      "name": "updateDelivered",
      "outputs": [],
      "stateMutability": "nonpayable",
      "type": "function"
    },
    {
      "inputs": [
        {
          "internalType": "uint256",
          "name": "amount",
          "type": "uint256"
        }
      ],
      "name": "withdraw",
      "outputs": [],
      "stateMutability": "nonpayable",
      "type": "function"
    }
  ],
  "bytecode": "0x608060405234801561001057600080fd5b50600080546001600160a01b0319163317905561039d806100326000396000f3fe6080604052600436106100555760003560e01c806327e235e31461005a5780632e1a7d4d1461009f57806342f6487a146100cb5780638da5cb5b146100d3578063a03e267814610104578063d659481614610137575b600080fd5b34801561006657600080fd5b5061008d6004803603602081101561007d57600080fd5b50356001600160a01b031661017e565b60408051918252519081900360200190f35b3480156100ab57600080fd5b506100c9600480360360208110156100c257600080fd5b5035610190565b005b6100c961026c565b3480156100df57600080fd5b506100e86102c8565b604080516001600160a01b039092168252519081900360200190f35b34801561011057600080fd5b506100c96004803603602081101561012757600080fd5b50356001600160a01b03166102d7565b34801561014357600080fd5b5061016a6004803603602081101561015a57600080fd5b50356001600160a01b0316610352565b604080519115158252519081900360200190f35b60016020526000908152604090205481565b6000546001600160a01b031633146101ef576040805162461bcd60e51b815260206004820152601760248201527f4f6e6c79206f776e65722063616e207769746864726177000000000000000000604482015290519081900360640190fd5b4781111561023b576040805162461bcd60e51b8152602060048201526014602482015273496e73756666696369656e742062616c616e636560601b604482015290519081900360640190fd5b604051339082156108fc029083906000818181858888f19350505050158015610268573d6000803e3d6000fd5b5050565b600034116102b1576040805162461bcd60e51b815260206004820152600d60248201526c139bc81d985b1d59481cd95b9d609a1b604482015290519081900360640190fd5b336000908152600160205260409020805434019055565b6000546001600160a01b031681565b6000546001600160a01b0316331461032e576040805162461bcd60e51b81526020600482015260156024820152744f6e6c79206f776e65722063616e2075706461746560581b604482015290519081900360640190fd5b6001600160a01b03166000908152600260205260409020805460ff19166001179055565b60026020526000908152604090205460ff168156fea264697066735822122028c09661d1c2699db95a595469f38402a80811298ddca792133455b16f5ef66664736f6c63430006000033",
  "linkReferences": {},
  "deployedLinkReferences": {}
}